:100000000C942A000C9434000C9434000C943400AA
:100010000C9434000C9434000C9434000C94340090
:100020000C9434000C9434000C9434000C94340080
:100030000C9434000C9434000C9434000C94340070
:100040000C9434000C9434000C9434000C94340060
:100050000C94340011241FBECFE5D8E0DEBFCDBF25
:100060000E9436000C9409060C940000CF93DF9395
:10007000CDB7DEB760E080E00E94430080E090E012
:10008000DF91CF910895CF93DF9300D0CDB7DEB746
:1000900089836A838981882F90E08330910509F4F0
:1000A00088C08330910511F00CF0B0C0823091050A
:1000B00009F459C08230910511F00CF0A7C00097E7
:1000C00021F08130910541F1A1C08A81882349F452
:1000D0008AE390E0FC0110828BE390E0FC01108247
:1000E0008EC08A81823051F48AE390E0FC01108254
:1000F0008BE390E02FEFFC01208381C08A81813067
:1001000009F07DC08AE390E02FEFFC0120838BE3B0
:1001100090E0FC01108273C08A81882349F487E350
:1001200090E0FC01108288E390E0FC01108269C03D
:100130008A81823051F487E390E0FC01108288E3E9
:1001400090E02FEFFC0120835CC08A81813009F0B0
:1001500058C087E390E02FEFFC01208388E390E014
:10016000FC0110824EC08A81882349F484E390E028
:10017000FC01108285E390E0FC01108244C08A817A
:10018000823051F484E390E0FC01108285E390E03A
:100190002FEFFC01208337C08A818130A1F584E3F1
:1001A00090E02FEFFC01208385E390E0FC011082BA
:1001B0002AC08A81882349F481E390E0FC011082FF
:1001C00082E390E0FC01108220C08A81823051F4E9
:1001D00081E390E0FC01108282E390E02FEFFC01CC
:1001E000208313C08A81813081F481E390E02FEF76
:1001F000FC01208382E390E0FC01108206C0000035
:1002000005C0000003C0000001C0000000000F9006
:100210000F90DF91CF910895CF93DF9300D0CDB7AA
:10022000DEB789836A838981882F90E083309105C6
:1002300009F446C08330910511F00CF059C08230AA
:10024000910569F18230910511F00CF051C00097D1
:1002500021F08130910591F04BC08A81813031F4D9
:100260008BE390E02FEFFC0120833BC08A81882341
:10027000C1F58BE390E0FC01108233C08A818130AC
:1002800031F488E390E02FEFFC0120832CC08A81B9
:10029000882349F588E390E0FC01108224C08A811C
:1002A000813031F485E390E02FEFFC0120831DC005
:1002B0008A818823D1F485E390E0FC01108215C087
:1002C0008A81813031F482E390E02FEFFC012083BA
:1002D0000EC08A81882359F482E390E0FC011082E9
:1002E00006C0000005C0000003C0000001C00000FF
:1002F00000000F900F90DF91CF910895CF93DF937F
:1003000000D00F92CDB7DEB789836A834B83898192
:10031000882F90E08330910509F4C2C183309105A4
:1003200011F00CF052C28230910509F42AC18230DA
:10033000910511F00CF049C2009729F08130910528
:1003400009F490C042C28B81882369F58AE390E06A
:10035000FC018081482F8A81282F30E081E090E0E5
:1003600002C0880F991F2A95E2F78095242F282331
:100370008AE390E0FC0120838BE390E0FC01808124
:10038000482F8A81282F30E081E090E002C0880F5A
:10039000991F2A95E2F78095242F28238BE390E07C
:1003A000FC0120830BC28B81823061F58AE390E0EF
:1003B000FC018081482F8A81282F30E081E090E085
:1003C00002C0880F991F2A95E2F78095242F2823D1
:1003D0008AE390E0FC0120838BE390E0FC018081C4
:1003E000482F8A81282F30E081E090E002C0880FFA
:1003F000991F2A95E2F7242F282B8BE390E0FC012C
:100400002083DCC18B81813009F0D8C18AE390E080
:10041000FC018081482F8A81282F30E081E090E024
:1004200002C0880F991F2A95E2F7242F282B8AE310
:1004300090E0FC0120838BE390E0FC018081482F59
:100440008A81282F30E081E090E002C0880F991F58
:100450002A95E2F78095242F28238BE390E0FC0176
:100460002083ACC18B81882369F587E390E0FC0190
:100470008081482F8A81282F30E081E090E002C0FF
:10048000880F991F2A95E2F78095242F282387E368
:1004900090E0FC01208388E390E0FC018081482FFC
:1004A0008A81282F30E081E090E002C0880F991FF8
:1004B0002A95E2F78095242F282388E390E0FC0119
:1004C00020837EC18B81823061F581E390E0FC0165
:1004D0008081482F8A81282F30E081E090E002C09F
:1004E000880F991F2A95E2F78095242F282381E30E
:1004F00090E0FC01208382E390E0FC018081482FA2
:100500008A81282F30E081E090E002C0880F991F97
:100510002A95E2F7242F282B82E390E0FC01208328
:100520004FC18B81813009F04BC187E390E0FC0122
:100530008081482F8A81282F30E081E090E002C03E
:10054000880F991F2A95E2F7242F282B87E390E044
:10055000FC01208388E390E0FC018081482F8A81A0
:10056000282F30E081E090E002C0880F991F2A9583
:10057000E2F78095242F282388E390E0FC01208374
:100580001FC18B81882369F584E390E0FC018081A1
:10059000482F8A81282F30E081E090E002C0880F48
:1005A000991F2A95E2F78095242F282384E390E071
:1005B000FC01208385E390E0FC018081482F8A8143
:1005C000282F30E081E090E002C0880F991F2A9523
:1005D000E2F78095242F282385E390E0FC01208317
:1005E000F1C08B81823061F584E390E0FC01808171
:1005F000482F8A81282F30E081E090E002C0880FE8
:10060000991F2A95E2F78095242F282384E390E010
:10061000FC01208385E390E0FC018081482F8A81E2
:10062000282F30E081E090E002C0880F991F2A95C2
:10063000E2F7242F282B85E390E0FC012083C2C041
:100640008B81813009F0BEC084E390E0FC018081A1
:10065000482F8A81282F30E081E090E002C0880F87
:10066000991F2A95E2F7242F282B84E390E0FC01C0
:10067000208385E390E0FC018081482F8A81282F28
:1006800030E081E090E002C0880F991F2A95E2F7E0
:100690008095242F282385E390E0FC01208392C0DD
:1006A0008B81882369F581E390E0FC018081482FEC
:1006B0008A81282F30E081E090E002C0880F991FE6
:1006C0002A95E2F78095242F282381E390E0FC010E
:1006D000208382E390E0FC018081482F8A81282FCB
:1006E00030E081E090E002C0880F991F2A95E2F780
:1006F0008095242F282382E390E0FC01208364C0AE
:100700008B81823061F581E390E0FC018081482F8C
:100710008A81282F30E081E090E002C0880F991F85
:100720002A95E2F78095242F282381E390E0FC01AD
:10073000208382E390E0FC018081482F8A81282F6A
:1007400030E081E090E002C0880F991F2A95E2F71F
:10075000242F282B82E390E0FC01208335C08B817D
:10076000813091F581E390E0FC018081482F8A81FE
:10077000282F30E081E090E002C0880F991F2A9571
:10078000E2F7242F282B81E390E0FC01208382E311
:1007900090E0FC018081482F8A81282F30E081E0A1
:1007A00090E002C0880F991F2A95E2F78095242FC8
:1007B000282382E390E0FC01208306C0000005C0EE
:1007C000000003C0000001C0000000000F900F9067
:1007D0000F90DF91CF910895CF93DF9300D00F92C8
:1007E000CDB7DEB789836A834B838981882F90E0F8
:1007F0008330910509F4B0C08330910511F00CF0FD
:10080000E5C08230910509F473C08230910511F082
:100810000CF0DCC0009721F081309105A9F1D6C021
:100820008B818130B1F48BE390E0FC018081482F13
:100830008A81282F30E081E090E002C0880F991F64
:100840002A95E2F7242F282B8BE390E0FC012083EC
:10085000B6C08B81882309F0B2C08BE390E0FC0125
:100860008081482F8A81282F30E081E090E002C00B
:10087000880F991F2A95E2F78095242F28238BE370
:1008800090E0FC0120839BC08B818130B1F488E330
:1008900090E0FC018081482F8A81282F30E081E0A0
:1008A00090E002C0880F991F2A95E2F7242F282B89
:1008B00088E390E0FC01208384C08B81882309F0C9
:1008C00080C088E390E0FC018081482F8A81282F36
:1008D00030E081E090E002C0880F991F2A95E2F78E
:1008E0008095242F282388E390E0FC01208369C0B1
:1008F0008B818130B1F485E390E0FC018081482F49
:100900008A81282F30E081E090E002C0880F991F93
:100910002A95E2F7242F282B85E390E0FC01208321
:1009200052C08B81882309F04EC085E390E0FC0122
:100930008081482F8A81282F30E081E090E002C03A
:10094000880F991F2A95E2F78095242F282385E3A5
:1009500090E0FC01208337C08B818130B1F482E3C9
:1009600090E0FC018081482F8A81282F30E081E0CF
:1009700090E002C0880F991F2A95E2F7242F282BB8
:1009800082E390E0FC01208320C08B818823E9F47E
:1009900082E390E0FC018081482F8A81282F30E09B
:1009A00081E090E002C0880F991F2A95E2F78095B8
:1009B000242F282382E390E0FC01208306C000005E
:1009C00005C0000003C0000001C0000000000F903F
:1009D0000F900F90DF91CF910895CF93DF9300D0C8
:1009E000CDB7DEB789836A838981882F90E0833011
:1009F000910509F455C08330910511F00CF066C0E3
:100A000082309105B9F18230910511F00CF05EC091
:100A1000009721F081309105B9F058C089E390E04A
:100A2000FC018081482F8A81282F30E081E090E00E
:100A300002C0880F991F2A95E2F7242F282789E3FF
:100A400090E0FC01208343C086E390E0FC018081BC
:100A5000482F8A81282F30E081E090E002C0880F83
:100A6000991F2A95E2F7242F282786E390E0FC01BE
:100A700020832DC083E390E0FC018081482F8A8190
:100A8000282F30E081E090E002C0880F991F2A955E
:100A9000E2F7242F282783E390E0FC01208317C08E
:100AA00080E390E0FC018081482F8A81282F30E08C
:100AB00081E090E002C0880F991F2A95E2F7242F69
:100AC000282780E390E0FC01208301C000000000A3
:100AD0000F900F90DF91CF910895CF93DF9300D0C7
:100AE000CDB7DEB789836A838981882F90E0833010
:100AF000910509F46BC08330910511F00CF083C0AF
:100B00008230910509F445C08230910511F00CF056
:100B10007AC0009721F081309105F1F074C089E32B
:100B200090E0FC018081282F30E08A81482F50E03E
:100B300081E090E0042E02C0880F991F0A94E2F72A
:100B4000822393232A81222F30E0022E02C0959522
:100B500087950A94E2F758C086E390E0FC01808113
:100B6000282F30E08A81482F50E081E090E0042E69
:100B700002C0880F991F0A94E2F7822393232A81E7
:100B8000222F30E0022E02C0959587950A94E2F755
:100B90003BC083E390E0FC018081282F30E08A8114
:100BA000482F50E081E090E0042E02C0880F991F8A
:100BB0000A94E2F7822393232A81222F30E0022E27
:100BC00002C0959587950A94E2F71EC080E390E0F5
:100BD000FC018081282F30E08A81482F50E081E09D
:100BE00090E0042E02C0880F991F0A94E2F7822336
:100BF00093232A81222F30E0022E02C095958795FB
:100C00000A94E2F701C08FEF0F900F90DF91CF9120
:060C10000895F894FFCFE7
:00000001FF
