:100000000C942A000C943F000C943F000C943F0089
:100010000C943F000C943F000C943F000C943F0064
:100020000C943F000C943F000C943F000C943F0054
:100030000C943F000C943F000C943F000C943F0044
:100040000C943F000C943F000C943F000C943F0034
:100050000C943F0011241FBECFE5D8E0DEBFCDBF1A
:1000600010E0A0E6B0E0ECE2F3E102C005900D92F2
:10007000A238B107D9F70E9441000C9494090C945E
:100080000000CF93DF93CDB7DEB70E945F060E94DA
:10009000B00761E088E00E94B80161E089E00E9459
:1000A000B80161E089E00E942D0488E790E00E9499
:1000B0002E0961E086E00E9459090E948706853377
:1000C00079F460E088E00E942D040E947F0988E7AF
:1000D00090E00E942E0961E086E00E945909EDCF70
:1000E0000E948706803349F761E088E00E942D0472
:1000F0008CE790E00E942E09E0CFCF93DF9300D0F1
:10010000CDB7DEB789836A838981882F90E08330F9
:10011000910509F488C08330910511F00CF0B0C04E
:100120008230910509F459C08230910511F00CF02C
:10013000A7C0009721F08130910541F1A1C08A81CB
:10014000882349F48AE390E0FC0110828BE390E07D
:10015000FC0110828EC08A81823051F48AE390E0E3
:10016000FC0110828BE390E02FEFFC01208381C023
:100170008A81813009F07DC08AE390E02FEFFC0195
:1001800020838BE390E0FC01108273C08A81882376
:1001900049F487E390E0FC01108288E390E0FC01E1
:1001A000108269C08A81823051F487E390E0FC01BB
:1001B000108288E390E02FEFFC0120835CC08A81ED
:1001C000813009F058C087E390E02FEFFC012083D5
:1001D00088E390E0FC0110824EC08A81882349F4B4
:1001E00084E390E0FC01108285E390E0FC01108242
:1001F00044C08A81823051F484E390E0FC01108293
:1002000085E390E02FEFFC01208337C08A818130A5
:10021000A1F584E390E02FEFFC01208385E390E0DB
:10022000FC0110822AC08A81882349F481E390E08E
:10023000FC01108282E390E0FC01108220C08A81E0
:10024000823051F481E390E0FC01108282E390E07F
:100250002FEFFC01208313C08A81813081F481E378
:1002600090E02FEFFC01208382E390E0FC011082FC
:1002700006C0000005C0000003C0000001C000006F
:1002800000000F900F90DF91CF910895CF93DF93EF
:1002900000D0CDB7DEB789836A838981882F90E04B
:1002A0008330910509F446C08330910511F00CF0BC
:1002B00059C08230910569F18230910511F00CF03E
:1002C00051C0009721F08130910591F04BC08A8197
:1002D000813031F48BE390E02FEFFC0120833BC0B1
:1002E0008A818823C1F58BE390E0FC01108233C042
:1002F0008A81813031F488E390E02FEFFC01208384
:100300002CC08A81882349F588E390E0FC011082A3
:1003100024C08A81813031F485E390E02FEFFC0125
:1003200020831DC08A818823D1F485E390E0FC01FD
:10033000108215C08A81813031F482E390E02FEF82
:10034000FC0120830EC08A81882359F482E390E067
:10035000FC01108206C0000005C0000003C00000C0
:1003600001C0000000000F900F90DF91CF91089521
:10037000CF93DF9300D00F92CDB7DEB78A836B8324
:100380008A8186958695869589838A8187708A83F6
:100390008981882F90E08330910509F4C2C18330B0
:1003A000910511F00CF052C28230910509F42AC176
:1003B0008230910511F00CF049C2009729F081308C
:1003C000910509F490C042C28B81882369F58AE3C4
:1003D00090E0FC018081482F8A81282F30E081E065
:1003E00090E002C0880F991F2A95E2F78095242F8C
:1003F00028238AE390E0FC0120838BE390E0FC015A
:100400008081482F8A81282F30E081E090E002C06F
:10041000880F991F2A95E2F78095242F28238BE3D4
:1004200090E0FC0120830BC28B81823061F58AE36E
:1004300090E0FC018081482F8A81282F30E081E004
:1004400090E002C0880F991F2A95E2F78095242F2B
:1004500028238AE390E0FC0120838BE390E0FC01F9
:100460008081482F8A81282F30E081E090E002C00F
:10047000880F991F2A95E2F7242F282B8BE390E011
:10048000FC012083DCC18B81813009F0D8C18AE373
:1004900090E0FC018081482F8A81282F30E081E0A4
:1004A00090E002C0880F991F2A95E2F7242F282B8D
:1004B0008AE390E0FC0120838BE390E0FC018081E3
:1004C000482F8A81282F30E081E090E002C0880F19
:1004D000991F2A95E2F78095242F28238BE390E03B
:1004E000FC012083ACC18B81882369F587E390E010
:1004F000FC018081482F8A81282F30E081E090E044
:1005000002C0880F991F2A95E2F78095242F28238F
:1005100087E390E0FC01208388E390E0FC01808188
:10052000482F8A81282F30E081E090E002C0880FB8
:10053000991F2A95E2F78095242F282388E390E0DD
:10054000FC0120837EC18B81823061F581E390E0E4
:10055000FC018081482F8A81282F30E081E090E0E3
:1005600002C0880F991F2A95E2F78095242F28232F
:1005700081E390E0FC01208382E390E0FC01808134
:10058000482F8A81282F30E081E090E002C0880F58
:10059000991F2A95E2F7242F282B82E390E0FC0193
:1005A00020834FC18B81813009F04BC187E390E0FC
:1005B000FC018081482F8A81282F30E081E090E083
:1005C00002C0880F991F2A95E2F7242F282B87E372
:1005D00090E0FC01208388E390E0FC018081482FBB
:1005E0008A81282F30E081E090E002C0880F991FB7
:1005F0002A95E2F78095242F282388E390E0FC01D8
:1006000020831FC18B81882369F584E390E0FC017E
:100610008081482F8A81282F30E081E090E002C05D
:10062000880F991F2A95E2F78095242F282384E3C9
:1006300090E0FC01208385E390E0FC018081482F5D
:100640008A81282F30E081E090E002C0880F991F56
:100650002A95E2F78095242F282385E390E0FC017A
:100660002083F1C08B81823061F584E390E0FC014E
:100670008081482F8A81282F30E081E090E002C0FD
:10068000880F991F2A95E2F78095242F282384E369
:1006900090E0FC01208385E390E0FC018081482FFD
:1006A0008A81282F30E081E090E002C0880F991FF6
:1006B0002A95E2F7242F282B85E390E0FC01208384
:1006C000C2C08B81813009F0BEC084E390E0FC01A0
:1006D0008081482F8A81282F30E081E090E002C09D
:1006E000880F991F2A95E2F7242F282B84E390E0A6
:1006F000FC01208385E390E0FC018081482F8A8102
:10070000282F30E081E090E002C0880F991F2A95E1
:10071000E2F78095242F282385E390E0FC012083D5
:1007200092C08B81882369F581E390E0FC01808190
:10073000482F8A81282F30E081E090E002C0880FA6
:10074000991F2A95E2F78095242F282381E390E0D2
:10075000FC01208382E390E0FC018081482F8A81A4
:10076000282F30E081E090E002C0880F991F2A9581
:10077000E2F78095242F282382E390E0FC01208378
:1007800064C08B81823061F581E390E0FC0180815F
:10079000482F8A81282F30E081E090E002C0880F46
:1007A000991F2A95E2F78095242F282381E390E072
:1007B000FC01208382E390E0FC018081482F8A8144
:1007C000282F30E081E090E002C0880F991F2A9521
:1007D000E2F7242F282B82E390E0FC01208335C030
:1007E0008B81813091F581E390E0FC018081482F7D
:1007F0008A81282F30E081E090E002C0880F991FA5
:100800002A95E2F7242F282B81E390E0FC01208336
:1008100082E390E0FC018081482F8A81282F30E01C
:1008200081E090E002C0880F991F2A95E2F7809539
:10083000242F282382E390E0FC01208306C00000DF
:1008400005C0000003C0000001C0000000000F90C0
:100850000F900F90DF91CF910895CF93DF9300D049
:100860000F92CDB7DEB78A836B838A818695869592
:10087000869589838A8187708A838981882F90E011
:100880008330910509F4B0C08330910511F00CF06C
:10089000E5C08230910509F473C08230910511F0F2
:1008A0000CF0DCC0009721F081309105A9F1D6C091
:1008B0008B818130B1F48BE390E0FC018081482F83
:1008C0008A81282F30E081E090E002C0880F991FD4
:1008D0002A95E2F7242F282B8BE390E0FC0120835C
:1008E000B6C08B81882309F0B2C08BE390E0FC0195
:1008F0008081482F8A81282F30E081E090E002C07B
:10090000880F991F2A95E2F78095242F28238BE3DF
:1009100090E0FC0120839BC08B818130B1F488E39F
:1009200090E0FC018081482F8A81282F30E081E00F
:1009300090E002C0880F991F2A95E2F7242F282BF8
:1009400088E390E0FC01208384C08B81882309F038
:1009500080C088E390E0FC018081482F8A81282FA5
:1009600030E081E090E002C0880F991F2A95E2F7FD
:100970008095242F282388E390E0FC01208369C020
:100980008B818130B1F485E390E0FC018081482FB8
:100990008A81282F30E081E090E002C0880F991F03
:1009A0002A95E2F7242F282B85E390E0FC01208391
:1009B00052C08B81882309F04EC085E390E0FC0192
:1009C0008081482F8A81282F30E081E090E002C0AA
:1009D000880F991F2A95E2F78095242F282385E315
:1009E00090E0FC01208337C08B818130B1F482E339
:1009F00090E0FC018081482F8A81282F30E081E03F
:100A000090E002C0880F991F2A95E2F7242F282B27
:100A100082E390E0FC01208320C08B818823E9F4ED
:100A200082E390E0FC018081482F8A81282F30E00A
:100A300081E090E002C0880F991F2A95E2F7809527
:100A4000242F282382E390E0FC01208306C00000CD
:100A500005C0000003C0000001C0000000000F90AE
:100A60000F900F90DF91CF910895CF93DF9300D037
:100A7000CDB7DEB78A838A818695869586958983E8
:100A80008A8187708A838981882F90E083309105DD
:100A900009F455C08330910511F00CF066C0823026
:100AA0009105B9F18230910511F00CF05EC000970C
:100AB00021F081309105B9F058C08BE390E0FC0142
:100AC0008081482F8A81282F30E081E090E002C0A9
:100AD000880F991F2A95E2F7242F28278BE390E0AF
:100AE000FC01208343C088E390E0FC018081482F13
:100AF0008A81282F30E081E090E002C0880F991FA2
:100B00002A95E2F7242F282788E390E0FC01208330
:100B10002DC085E390E0FC018081482F8A81282F39
:100B200030E081E090E002C0880F991F2A95E2F73B
:100B3000242F282785E390E0FC01208317C082E35F
:100B400090E0FC018081482F8A81282F30E081E0ED
:100B500090E002C0880F991F2A95E2F7242F2827DA
:100B600082E390E0FC01208301C0000000000F90B0
:100B70000F90DF91CF910895CF93DF9300D0CDB741
:100B8000DEB78A838A8186958695869589838A8150
:100B900087708A838981882F90E08330910509F4DA
:100BA0006BC08330910511F00CF083C08230910549
:100BB00009F445C08230910511F00CF07AC000971D
:100BC00021F081309105F1F074C089E390E0FC01DF
:100BD0008081282F30E08A81482F50E081E090E02A
:100BE000042E02C0880F991F0A94E2F782239323F0
:100BF0002A81222F30E0022E02C0959587950A9413
:100C0000E2F758C086E390E0FC018081282F30E0B5
:100C10008A81482F50E081E090E0042E02C0880FC6
:100C2000991F0A94E2F7822393232A81222F30E02E
:100C3000022E02C0959587950A94E2F73BC083E3A4
:100C400090E0FC018081282F30E08A81482F50E01D
:100C500081E090E0042E02C0880F991F0A94E2F709
:100C6000822393232A81222F30E0022E02C0959501
:100C700087950A94E2F71EC080E390E0FC01808132
:100C8000282F30E08A81482F50E081E090E0042E48
:100C900002C0880F991F0A94E2F7822393232A81C6
:100CA000222F30E0022E02C0959587950A94E2F734
:100CB00001C08FEF0F900F90DF91CF910895CF93E8
:100CC000DF93CDB7DEB762E080E00E94B80162E05A
:100CD00081E00E94B80162E082E00E94B80162E017
:100CE00083E00E94B80161E084E00E94B80161E005
:100CF00085E00E94B80161E086E00E94B80161E0F1
:100D000087E00E94B8010000DF91CF910895CF9352
:100D1000DF9300D0CDB7DEB761E084E00E942D0400
:100D200061E085E00E942D0461E086E00E942D04D0
:100D300061E087E00E942D04198265C08981882FB7
:100D400090E080599F4FFC01808160E00E942D045B
:100D500061E070E080E090E00E941E071A8241C0CE
:100D60008A81882F90E08C589F4FFC0180810E94DF
:100D7000BC05882399F56BE470E080E090E00E9468
:100D80001E078A81882F90E08C589F4FFC0180813C
:100D90000E94BC05882311F560E084E00E942D04C8
:100DA00060E085E00E942D0460E086E00E942D0452
:100DB00060E087E00E942D048981882F90E09C01EB
:100DC000220F331F220F331F8A81882F90E0820F5A
:100DD000931F805A9F4FFC0180812BC08A818F5FB7
:100DE0008A838A81833009F008F4BACF8981882FF9
:100DF00090E080599F4FFC01808161E00E942D04AA
:100E000089818F5F89838981833009F008F496CFC7
:100E100060E084E00E942D0460E085E00E942D04E3
:100E200060E086E00E942D0460E087E00E942D04CF
:100E300080E00F900F90DF91CF910895CF93DF93D3
:100E400000D000D0CDB7DEB769837A838B839C83D3
:100E50002DC082E590E023E8FC01208383E590E04B
:100E600023E0FC012083000088E590E0FC01808104
:100E7000882F90E0817099270097B1F383E590E087
:100E8000FC01108288E590E0FC01208188E590E07B
:100E90002160FC01208389819A81AB81BC8101970B
:100EA000A109B10989839A83AB83BC8389819A8123
:100EB000AB81BC810097A105B10559F60000000087
:100EC0000F900F900F900F90DF91CF910895CF93D7
:100ED000DF9300D000D0CDB7DEB769837A838B83F0
:100EE0009C832DC082E590E028EFFC01208383E500
:100EF00090E021E0FC012083000088E590E0FC0107
:100F00008081882F90E0817099270097B1F383E565
:100F100090E0FC01108288E590E0FC01208188E5EA
:100F200090E02160FC01208389819A81AB81BC81A2
:100F30000197A109B10989839A83AB83BC83898115
:100F40009A81AB81BC810097A105B10559F60000DB
:100F500000000F900F900F900F90DF91CF910895A8
:100F6000CF93DF93CDB7DEB761E08CE10E94B8018B
:100F700061E08DE10E94B80161E08EE10E94B8015C
:100F800061E08FE10E94B80161E08BE10E94B8014D
:100F900061E08AE10E94B80161E089E10E94B80144
:100FA00060E08AE10E942D0464E170E080E090E05E
:100FB0000E941E0783E30E94F40782E30E94F40765
:100FC00088E20E94F4078EE00E94F40786E00E9407
:100FD000F40781E00E94F40760E080E00E94590974
:100FE0000000DF91CF910895CF93DF930F92CDB79B
:100FF000DEB789838981881F8827881F682F8FE142
:101000000E942D048981882F90E0082E892F000CE2
:10101000881F990B000C881F991F8170682F8EE123
:101020000E942D048981882F90E09595879595954C
:1010300087959595879595958795959587958170D1
:10104000682F8DE10E942D048981882F90E095956D
:1010500087959595879595958795959587958170B1
:10106000682F8CE10E942D0460E08BE10E942D042A
:1010700061E089E10E942D0461E070E080E090E091
:101080000E94670760E089E10E942D0468EC70E02F
:1010900080E090E00E9467078981882F90E0959515
:1010A000879595958795959587958170682F8FE1A0
:1010B0000E942D048981882F90E0959587959595BC
:1010C00087958170682F8EE10E942D048981882F79
:1010D00090E0959587958170682F8DE10E942D0491
:1010E00089818170682F8CE10E942D0460E08BE182
:1010F0000E942D0461E089E10E942D0461E070E00E
:1011000080E090E00E94670760E089E10E942D0482
:1011100062E070E080E090E00E941E0700000F9007
:10112000DF91CF910895CF93DF930F92CDB7DEB7C4
:1011300089838981881F8827881F682F8FE10E94F3
:101140002D048981882F90E0082E892F000C881F9C
:10115000990B000C881F991F8170682F8EE10E94E7
:101160002D048981882F90E0959587959595879591
:101170009595879595958795959587958170682F15
:101180008DE10E942D048981882F90E095958795A7
:101190009595879595958795959587958170682FF5
:1011A0008CE10E942D0461E08BE10E942D0461E03E
:1011B00089E10E942D0461E070E080E090E00E94EF
:1011C000670760E089E10E942D0468EC70E080E030
:1011D00090E00E9467078981882F90E09595879518
:1011E00095958795959587958170682F8FE10E94D9
:1011F0002D048981882F90E0959587959595879501
:101200008170682F8EE10E942D048981882F90E0E3
:10121000959587958170682F8DE10E942D048981B5
:101220008170682F8CE10E942D0461E089E10E94A9
:101230002D0461E070E080E090E00E94670760E0CC
:1012400089E10E942D0462E070E080E090E00E945D
:101250001E0700000F90DF91CF910895CF93DF9389
:1012600000D00F92CDB7DEB79B838A8319820EC060
:101270008981882F90E02A813B81820F931FFC0196
:1012800080810E94930889818F5F89838981882F5B
:1012900090E02A813B81820F931FFC01808188238B
:1012A00039F7000000000F900F900F90DF91CF9161
:1012B0000895CF93DF9300D0CDB7DEB789836A83DB
:1012C0008A81882351F489818F3009F030F4898133
:1012D0008F7080680E94F4070CC08A81813049F4C5
:1012E00089818F3009F028F489818F70806C0E9489
:1012F000F40700000F900F90DF91CF910895CF93E6
:10130000DF93CDB7DEB781E00E94F40762E070E0C2
:1013100080E090E00E941E0760E080E00E94590992
:0C1320000000DF91CF910895F894FFCFFA
:10132C003132334134353642373839432A3023444D
:10133C00040506070001020368692100444F4E456D
:02134C0021007E
:00000001FF
